{
    "contractName": "NFTGatedevent",
    "abi": [
        {
            "inputs": [],
            "name": "program",
            "outputs": [
                {
                    "internalType": "uint32",
                    "name": "",
                    "type": "uint32"
                }
            ],
            "stateMutability": "view",
            "type": "function"
        }
    ],
    "bytecode": "60808060405234601357607a908160188239f35b5f80fdfe60808060405260043610156011575f80fd5b5f3560e01c63c860ebc6146023575f80fd5b346040575f36600319011260405760209063ffffffff5f54168152f35b5f80fdfea2646970667358221220c81c74c3cb32e4e6aabfacaedd1a6010177631a865f1d0710659555004c7bd2464736f6c634300081b0033",
    "sourcePath": "/home/akhuemokhan-oluwatobi/Desktop/NFTGatedevent/contracts/NFTGatedevent.sol",
    "compiler": {
        "name": "solc",
        "version": "0.8.27+commit.40a35a09"
    },
    "functionHashes": {
        "program()": "c860ebc6"
    },
    "gasEstimates": {
        "creation": {
            "codeDepositCost": "24400",
            "executionCost": "81",
            "totalCost": "24481"
        },
        "external": {
            "program()": "2247"
        }
    }
}